S01F00004C696E6561725F4D6F746F725F436F6E74726F6C6C65722E73726563B7
S11300000C9434000C9451000C9451000C94510045
S11300100C9451000C9451000C9451000C94510018
S11300200C9451000C9451000C9451000C94510008
S11300300C9451000C9451000C9451000C945100F8
S11300400C9451000C9451000C94B2000C94510087
S11300500C9451000C9451000C9451000C945100D8
S11300600C9451000C94510011241FBECFEFD8E022
S1130070DEBFCDBF11E0A0E0B1E0E8EFF1E002C0E7
S113008005900D92AE31B107D9F721E0AEE1B1E0B0
S113009001C01D92A634B207E1F70E94C2000C947D
S11300A0FA000C9400008093C4009093C500E1EC26
S11300B0F0E088E1808381E0808386E08093C20061
S11300C00895E0ECF0E0908195FFFDCF8093C600A9
S11300D008950F931F93CF93DF93FC0101900020A9
S11300E0E9F73197E81BF90B51F0EC018C010E0F85
S11300F01F1F89910E946100C017D107D1F7DF91BA
S1130100CF911F910F910895E1ECF0E080818F7EF3
S1130110808380818061808308950E948400E0EC64
S1130120F0E080818823ECF78091C60008950F9356
S11301301F93CF93DF93CEE1D1E002E311E00E945D
S11301408D008D3729F08993C017D107C1F703C0FB
S11301508DE7809332018EE191E0DF91CF911F9181
S11301600F9108951F920F920FB60F9211248F933F
S11301708091C600809332018F910F900FBE0F9033
S11301801F90189587E690E00E945300789480E0D1
S113019091E00E9469000E94E30087E191E00E94DF
S11301A0690086E191E00E94970086E191E00E9457
S11301B069002FEF89E698E1215080409040E1F7F3
S11301C000C00000E8CF80E284B985B92FEF89E64A
S11301D098E1215080409040E1F700C0000015B83C
S11301E02FEF89E698E1215080409040E1F700C06C
S10B01F000000895F894FFCF0C
S11301F848656C6C6F207765206172652054656171
S11102086D2031210A0D006E65770A0D00008D
S9030000FC
